{
	"contracts/1_Storage.sol": {
		"Demo": {
			"abi": [
				{
					"inputs": [],
					"name": "counter",
					"outputs": [
						{
							"internalType": "int256",
							"name": "",
							"type": "int256"
						}
					],
					"stateMutability": "view",
					"type": "function"
				},
				{
					"inputs": [],
					"name": "readAndWriteStateVariable",
					"outputs": [
						{
							"internalType": "int256",
							"name": "",
							"type": "int256"
						}
					],
					"stateMutability": "nonpayable",
					"type": "function"
				},
				{
					"inputs": [],
					"name": "readStateVariable",
					"outputs": [
						{
							"internalType": "int256",
							"name": "",
							"type": "int256"
						}
					],
					"stateMutability": "nonpayable",
					"type": "function"
				},
				{
					"inputs": [],
					"name": "readStateVariableLocalVariable",
					"outputs": [
						{
							"internalType": "bool",
							"name": "",
							"type": "bool"
						}
					],
					"stateMutability": "view",
					"type": "function"
				},
				{
					"inputs": [],
					"name": "returnlocalVariable",
					"outputs": [
						{
							"internalType": "bool",
							"name": "",
							"type": "bool"
						}
					],
					"stateMutability": "pure",
					"type": "function"
				},
				{
					"inputs": [],
					"name": "writeStateVariable",
					"outputs": [],
					"stateMutability": "nonpayable",
					"type": "function"
				}
			],
			"devdoc": {
				"custom:dev-run-script": "./scripts/deploy_with_ethers.ts",
				"details": "Store & retrieve value in a variable",
				"kind": "dev",
				"methods": {},
				"title": "Storage",
				"version": 1
			},
			"evm": {
				"assembly": "    /* \"contracts/1_Storage.sol\":199:1042  contract Demo {... */\n  mstore(0x40, 0x80)\n    /* \"contracts/1_Storage.sol\":278:280  10 */\n  0x0a\n    /* \"contracts/1_Storage.sol\":259:280  int public counter=10 */\n  0x00\n  sstore\n    /* \"contracts/1_Storage.sol\":199:1042  contract Demo {... */\n  callvalue\n  dup1\n  iszero\n  tag_1\n  jumpi\n  0x00\n  dup1\n  revert\ntag_1:\n  pop\n  dataSize(sub_0)\n  dup1\n  dataOffset(sub_0)\n  0x00\n  codecopy\n  0x00\n  return\nstop\n\nsub_0: assembly {\n        /* \"contracts/1_Storage.sol\":199:1042  contract Demo {... */\n      mstore(0x40, 0x80)\n      callvalue\n      dup1\n      iszero\n      tag_1\n      jumpi\n      0x00\n      dup1\n      revert\n    tag_1:\n      pop\n      jumpi(tag_2, lt(calldatasize, 0x04))\n      shr(0xe0, calldataload(0x00))\n      dup1\n      0x10d2e18d\n      eq\n      tag_3\n      jumpi\n      dup1\n      0x1e836361\n      eq\n      tag_4\n      jumpi\n      dup1\n      0x61bc221a\n      eq\n      tag_5\n      jumpi\n      dup1\n      0x8cedeee0\n      eq\n      tag_6\n      jumpi\n      dup1\n      0xd4e74ec6\n      eq\n      tag_7\n      jumpi\n      dup1\n      0xdabd67ba\n      eq\n      tag_8\n      jumpi\n    tag_2:\n      0x00\n      dup1\n      revert\n        /* \"contracts/1_Storage.sol\":855:1030  function readStateVariableLocalVariable() public view returns(bool) {... */\n    tag_3:\n      tag_9\n      tag_10\n      jump\t// in\n    tag_9:\n      mload(0x40)\n      tag_11\n      swap2\n      swap1\n      tag_12\n      jump\t// in\n    tag_11:\n      mload(0x40)\n      dup1\n      swap2\n      sub\n      swap1\n      return\n        /* \"contracts/1_Storage.sol\":309:383  function writeStateVariable() public {... */\n    tag_4:\n      tag_13\n      tag_14\n      jump\t// in\n    tag_13:\n      stop\n        /* \"contracts/1_Storage.sol\":259:280  int public counter=10 */\n    tag_5:\n      tag_15\n      tag_16\n      jump\t// in\n    tag_15:\n      mload(0x40)\n      tag_17\n      swap2\n      swap1\n      tag_18\n      jump\t// in\n    tag_17:\n      mload(0x40)\n      dup1\n      swap2\n      sub\n      swap1\n      return\n        /* \"contracts/1_Storage.sol\":542:631  function readStateVariable() public returns(int) {... */\n    tag_6:\n      tag_19\n      tag_20\n      jump\t// in\n    tag_19:\n      mload(0x40)\n      tag_21\n      swap2\n      swap1\n      tag_18\n      jump\t// in\n    tag_21:\n      mload(0x40)\n      dup1\n      swap2\n      sub\n      swap1\n      return\n        /* \"contracts/1_Storage.sol\":384:540  function readAndWriteStateVariable() public returns(int) {... */\n    tag_7:\n      tag_22\n      tag_23\n      jump\t// in\n    tag_22:\n      mload(0x40)\n      tag_24\n      swap2\n      swap1\n      tag_18\n      jump\t// in\n    tag_24:\n      mload(0x40)\n      dup1\n      swap2\n      sub\n      swap1\n      return\n        /* \"contracts/1_Storage.sol\":712:852  function returnlocalVariable() public pure returns(bool) {... */\n    tag_8:\n      tag_25\n      tag_26\n      jump\t// in\n    tag_25:\n      mload(0x40)\n      tag_27\n      swap2\n      swap1\n      tag_12\n      jump\t// in\n    tag_27:\n      mload(0x40)\n      dup1\n      swap2\n      sub\n      swap1\n      return\n        /* \"contracts/1_Storage.sol\":855:1030  function readStateVariableLocalVariable() public view returns(bool) {... */\n    tag_10:\n        /* \"contracts/1_Storage.sol\":917:921  bool */\n      0x00\n        /* \"contracts/1_Storage.sol\":934:946  int localVar */\n      dup1\n        /* \"contracts/1_Storage.sol\":949:956  counter */\n      sload(0x00)\n        /* \"contracts/1_Storage.sol\":934:956  int localVar = counter */\n      swap1\n      pop\n        /* \"contracts/1_Storage.sol\":971:981  bool value */\n      0x00\n        /* \"contracts/1_Storage.sol\":993:994  0 */\n      dup1\n        /* \"contracts/1_Storage.sol\":984:992  localVar */\n      dup3\n        /* \"contracts/1_Storage.sol\":984:994  localVar>0 */\n      sgt\n        /* \"contracts/1_Storage.sol\":971:994  bool value = localVar>0 */\n      swap1\n      pop\n        /* \"contracts/1_Storage.sol\":1018:1023  value */\n      dup1\n        /* \"contracts/1_Storage.sol\":1011:1023  return value */\n      swap3\n      pop\n      pop\n      pop\n        /* \"contracts/1_Storage.sol\":855:1030  function readStateVariableLocalVariable() public view returns(bool) {... */\n      swap1\n      jump\t// out\n        /* \"contracts/1_Storage.sol\":309:383  function writeStateVariable() public {... */\n    tag_14:\n        /* \"contracts/1_Storage.sol\":360:362  20 */\n      0x14\n        /* \"contracts/1_Storage.sol\":352:359  counter */\n      0x00\n        /* \"contracts/1_Storage.sol\":352:362  counter=20 */\n      dup2\n      swap1\n      sstore\n      pop\n        /* \"contracts/1_Storage.sol\":309:383  function writeStateVariable() public {... */\n      jump\t// out\n        /* \"contracts/1_Storage.sol\":259:280  int public counter=10 */\n    tag_16:\n      sload(0x00)\n      dup2\n      jump\t// out\n        /* \"contracts/1_Storage.sol\":542:631  function readStateVariable() public returns(int) {... */\n    tag_20:\n        /* \"contracts/1_Storage.sol\":586:589  int */\n      0x00\n        /* \"contracts/1_Storage.sol\":605:608  100 */\n      0x64\n        /* \"contracts/1_Storage.sol\":597:604  counter */\n      0x00\n        /* \"contracts/1_Storage.sol\":597:608  counter=100 */\n      dup2\n      swap1\n      sstore\n      pop\n        /* \"contracts/1_Storage.sol\":621:628  counter */\n      sload(0x00)\n        /* \"contracts/1_Storage.sol\":614:628  return counter */\n      swap1\n      pop\n        /* \"contracts/1_Storage.sol\":542:631  function readStateVariable() public returns(int) {... */\n      swap1\n      jump\t// out\n        /* \"contracts/1_Storage.sol\":384:540  function readAndWriteStateVariable() public returns(int) {... */\n    tag_23:\n        /* \"contracts/1_Storage.sol\":436:439  int */\n      0x00\n        /* \"contracts/1_Storage.sol\":455:458  100 */\n      0x64\n        /* \"contracts/1_Storage.sol\":447:454  counter */\n      0x00\n        /* \"contracts/1_Storage.sol\":447:458  counter=100 */\n      dup2\n      swap1\n      sstore\n      pop\n        /* \"contracts/1_Storage.sol\":501:508  counter */\n      sload(0x00)\n        /* \"contracts/1_Storage.sol\":494:508  return counter */\n      swap1\n      pop\n        /* \"contracts/1_Storage.sol\":384:540  function readAndWriteStateVariable() public returns(int) {... */\n      swap1\n      jump\t// out\n        /* \"contracts/1_Storage.sol\":712:852  function returnlocalVariable() public pure returns(bool) {... */\n    tag_26:\n        /* \"contracts/1_Storage.sol\":763:767  bool */\n      0x00\n        /* \"contracts/1_Storage.sol\":808:818  bool value */\n      dup1\n        /* \"contracts/1_Storage.sol\":819:823  true */\n      0x01\n        /* \"contracts/1_Storage.sol\":808:823  bool value=true */\n      swap1\n      pop\n        /* \"contracts/1_Storage.sol\":840:845  value */\n      dup1\n        /* \"contracts/1_Storage.sol\":833:845  return value */\n      swap2\n      pop\n      pop\n        /* \"contracts/1_Storage.sol\":712:852  function returnlocalVariable() public pure returns(bool) {... */\n      swap1\n      jump\t// out\n        /* \"#utility.yul\":7:97   */\n    tag_33:\n        /* \"#utility.yul\":41:48   */\n      0x00\n        /* \"#utility.yul\":84:89   */\n      dup2\n        /* \"#utility.yul\":77:90   */\n      iszero\n        /* \"#utility.yul\":70:91   */\n      iszero\n        /* \"#utility.yul\":59:91   */\n      swap1\n      pop\n        /* \"#utility.yul\":7:97   */\n      swap2\n      swap1\n      pop\n      jump\t// out\n        /* \"#utility.yul\":103:212   */\n    tag_34:\n        /* \"#utility.yul\":184:205   */\n      tag_40\n        /* \"#utility.yul\":199:204   */\n      dup2\n        /* \"#utility.yul\":184:205   */\n      tag_33\n      jump\t// in\n    tag_40:\n        /* \"#utility.yul\":179:182   */\n      dup3\n        /* \"#utility.yul\":172:206   */\n      mstore\n        /* \"#utility.yul\":103:212   */\n      pop\n      pop\n      jump\t// out\n        /* \"#utility.yul\":218:428   */\n    tag_12:\n        /* \"#utility.yul\":305:309   */\n      0x00\n        /* \"#utility.yul\":343:345   */\n      0x20\n        /* \"#utility.yul\":332:341   */\n      dup3\n        /* \"#utility.yul\":328:346   */\n      add\n        /* \"#utility.yul\":320:346   */\n      swap1\n      pop\n        /* \"#utility.yul\":356:421   */\n      tag_42\n        /* \"#utility.yul\":418:419   */\n      0x00\n        /* \"#utility.yul\":407:416   */\n      dup4\n        /* \"#utility.yul\":403:420   */\n      add\n        /* \"#utility.yul\":394:400   */\n      dup5\n        /* \"#utility.yul\":356:421   */\n      tag_34\n      jump\t// in\n    tag_42:\n        /* \"#utility.yul\":218:428   */\n      swap3\n      swap2\n      pop\n      pop\n      jump\t// out\n        /* \"#utility.yul\":434:510   */\n    tag_35:\n        /* \"#utility.yul\":470:477   */\n      0x00\n        /* \"#utility.yul\":499:504   */\n      dup2\n        /* \"#utility.yul\":488:504   */\n      swap1\n      pop\n        /* \"#utility.yul\":434:510   */\n      swap2\n      swap1\n      pop\n      jump\t// out\n        /* \"#utility.yul\":516:631   */\n    tag_36:\n        /* \"#utility.yul\":601:624   */\n      tag_45\n        /* \"#utility.yul\":618:623   */\n      dup2\n        /* \"#utility.yul\":601:624   */\n      tag_35\n      jump\t// in\n    tag_45:\n        /* \"#utility.yul\":596:599   */\n      dup3\n        /* \"#utility.yul\":589:625   */\n      mstore\n        /* \"#utility.yul\":516:631   */\n      pop\n      pop\n      jump\t// out\n        /* \"#utility.yul\":637:855   */\n    tag_18:\n        /* \"#utility.yul\":728:732   */\n      0x00\n        /* \"#utility.yul\":766:768   */\n      0x20\n        /* \"#utility.yul\":755:764   */\n      dup3\n        /* \"#utility.yul\":751:769   */\n      add\n        /* \"#utility.yul\":743:769   */\n      swap1\n      pop\n        /* \"#utility.yul\":779:848   */\n      tag_47\n        /* \"#utility.yul\":845:846   */\n      0x00\n        /* \"#utility.yul\":834:843   */\n      dup4\n        /* \"#utility.yul\":830:847   */\n      add\n        /* \"#utility.yul\":821:827   */\n      dup5\n        /* \"#utility.yul\":779:848   */\n      tag_36\n      jump\t// in\n    tag_47:\n        /* \"#utility.yul\":637:855   */\n      swap3\n      swap2\n      pop\n      pop\n      jump\t// out\n\n    auxdata: 0xa26469706673582212208a219c577c08de7953c868c7ff24b92f4da90399ce56c3bf0406c053e884f6d764736f6c634300081a0033\n}\n",
				"bytecode": {
					"linkReferences": {},
					"object": "6080604052600a5f553480156012575f80fd5b506101eb806100205f395ff3fe608060405234801561000f575f80fd5b5060043610610060575f3560e01c806310d2e18d146100645780631e8363611461008257806361bc221a1461008c5780638cedeee0146100aa578063d4e74ec6146100c8578063dabd67ba146100e6575b5f80fd5b61006c610104565b604051610079919061016b565b60405180910390f35b61008a610118565b005b610094610121565b6040516100a1919061019c565b60405180910390f35b6100b2610126565b6040516100bf919061019c565b60405180910390f35b6100d0610135565b6040516100dd919061019c565b60405180910390f35b6100ee610144565b6040516100fb919061016b565b60405180910390f35b5f805f5490505f8082139050809250505090565b60145f81905550565b5f5481565b5f60645f819055505f54905090565b5f60645f819055505f54905090565b5f80600190508091505090565b5f8115159050919050565b61016581610151565b82525050565b5f60208201905061017e5f83018461015c565b92915050565b5f819050919050565b61019681610184565b82525050565b5f6020820190506101af5f83018461018d565b9291505056fea26469706673582212208a219c577c08de7953c868c7ff24b92f4da90399ce56c3bf0406c053e884f6d764736f6c634300081a0033",
					"opcodes": "PUSH1 0x80 PUSH1 0x40 MSTORE PUSH1 0xA PUSH0 SSTORE CALLVALUE DUP1 ISZERO PUSH1 0x12 JUMPI PUSH0 DUP1 REVERT JUMPDEST POP PUSH2 0x1EB DUP1 PUSH2 0x20 PUSH0 CODECOPY PUSH0 RETURN INVALID PUSH1 0x80 PUSH1 0x40 MSTORE CALLVALUE DUP1 ISZERO PUSH2 0xF JUMPI PUSH0 DUP1 REVERT JUMPDEST POP PUSH1 0x4 CALLDATASIZE LT PUSH2 0x60 JUMPI PUSH0 CALLDATALOAD PUSH1 0xE0 SHR DUP1 PUSH4 0x10D2E18D EQ PUSH2 0x64 JUMPI DUP1 PUSH4 0x1E836361 EQ PUSH2 0x82 JUMPI DUP1 PUSH4 0x61BC221A EQ PUSH2 0x8C JUMPI DUP1 PUSH4 0x8CEDEEE0 EQ PUSH2 0xAA JUMPI DUP1 PUSH4 0xD4E74EC6 EQ PUSH2 0xC8 JUMPI DUP1 PUSH4 0xDABD67BA EQ PUSH2 0xE6 JUMPI JUMPDEST PUSH0 DUP1 REVERT JUMPDEST PUSH2 0x6C PUSH2 0x104 JUMP JUMPDEST PUSH1 0x40 MLOAD PUSH2 0x79 SWAP2 SWAP1 PUSH2 0x16B JUMP JUMPDEST PUSH1 0x40 MLOAD DUP1 SWAP2 SUB SWAP1 RETURN JUMPDEST PUSH2 0x8A PUSH2 0x118 JUMP JUMPDEST STOP JUMPDEST PUSH2 0x94 PUSH2 0x121 JUMP JUMPDEST PUSH1 0x40 MLOAD PUSH2 0xA1 SWAP2 SWAP1 PUSH2 0x19C JUMP JUMPDEST PUSH1 0x40 MLOAD DUP1 SWAP2 SUB SWAP1 RETURN JUMPDEST PUSH2 0xB2 PUSH2 0x126 JUMP JUMPDEST PUSH1 0x40 MLOAD PUSH2 0xBF SWAP2 SWAP1 PUSH2 0x19C JUMP JUMPDEST PUSH1 0x40 MLOAD DUP1 SWAP2 SUB SWAP1 RETURN JUMPDEST PUSH2 0xD0 PUSH2 0x135 JUMP JUMPDEST PUSH1 0x40 MLOAD PUSH2 0xDD SWAP2 SWAP1 PUSH2 0x19C JUMP JUMPDEST PUSH1 0x40 MLOAD DUP1 SWAP2 SUB SWAP1 RETURN JUMPDEST PUSH2 0xEE PUSH2 0x144 JUMP JUMPDEST PUSH1 0x40 MLOAD PUSH2 0xFB SWAP2 SWAP1 PUSH2 0x16B JUMP JUMPDEST PUSH1 0x40 MLOAD DUP1 SWAP2 SUB SWAP1 RETURN JUMPDEST PUSH0 DUP1 PUSH0 SLOAD SWAP1 POP PUSH0 DUP1 DUP3 SGT SWAP1 POP DUP1 SWAP3 POP POP POP SWAP1 JUMP JUMPDEST PUSH1 0x14 PUSH0 DUP2 SWAP1 SSTORE POP JUMP JUMPDEST PUSH0 SLOAD DUP2 JUMP JUMPDEST PUSH0 PUSH1 0x64 PUSH0 DUP2 SWAP1 SSTORE POP PUSH0 SLOAD SWAP1 POP SWAP1 JUMP JUMPDEST PUSH0 PUSH1 0x64 PUSH0 DUP2 SWAP1 SSTORE POP PUSH0 SLOAD SWAP1 POP SWAP1 JUMP JUMPDEST PUSH0 DUP1 PUSH1 0x1 SWAP1 POP DUP1 SWAP2 POP POP SWAP1 JUMP JUMPDEST PUSH0 DUP2 ISZERO ISZERO SWAP1 POP SWAP2 SWAP1 POP JUMP JUMPDEST PUSH2 0x165 DUP2 PUSH2 0x151 JUMP JUMPDEST DUP3 MSTORE POP POP JUMP JUMPDEST PUSH0 PUSH1 0x20 DUP3 ADD SWAP1 POP PUSH2 0x17E PUSH0 DUP4 ADD DUP5 PUSH2 0x15C JUMP JUMPDEST SWAP3 SWAP2 POP POP JUMP JUMPDEST PUSH0 DUP2 SWAP1 POP SWAP2 SWAP1 POP JUMP JUMPDEST PUSH2 0x196 DUP2 PUSH2 0x184 JUMP JUMPDEST DUP3 MSTORE POP POP JUMP JUMPDEST PUSH0 PUSH1 0x20 DUP3 ADD SWAP1 POP PUSH2 0x1AF PUSH0 DUP4 ADD DUP5 PUSH2 0x18D JUMP JUMPDEST SWAP3 SWAP2 POP POP JUMP INVALID LOG2 PUSH5 0x6970667358 0x22 SLT KECCAK256 DUP11 0x21 SWAP13 JUMPI PUSH29 0x8DE7953C868C7FF24B92F4DA90399CE56C3BF0406C053E884F6D76473 PUSH16 0x6C634300081A00330000000000000000 "
				},
				"gasEstimates": {
					"creation": {
						"codeDepositCost": "98200",
						"executionCost": "22250",
						"totalCost": "120450"
					},
					"external": {
						"counter()": "2446",
						"readAndWriteStateVariable()": "24610",
						"readStateVariable()": "24588",
						"readStateVariableLocalVariable()": "2446",
						"returnlocalVariable()": "439",
						"writeStateVariable()": "22256"
					}
				},
				"methodIdentifiers": {
					"counter()": "61bc221a",
					"readAndWriteStateVariable()": "d4e74ec6",
					"readStateVariable()": "8cedeee0",
					"readStateVariableLocalVariable()": "10d2e18d",
					"returnlocalVariable()": "dabd67ba",
					"writeStateVariable()": "1e836361"
				}
			},
			"storageLayout": {
				"storage": [
					{
						"astId": 5,
						"contract": "contracts/1_Storage.sol:Demo",
						"label": "counter",
						"offset": 0,
						"slot": "0",
						"type": "t_int256"
					}
				],
				"types": {
					"t_int256": {
						"encoding": "inplace",
						"label": "int256",
						"numberOfBytes": "32"
					}
				}
			},
			"userdoc": {
				"kind": "user",
				"methods": {},
				"version": 1
			}
		}
	}
}